:020000040800F2
:1000000010050020C5010008E1020008D90200081F
:10001000DD020008D30200081104000800000000FF
:100020000000000000000000000000000F030008B6
:10003000D7020008000000000D03000811030008AB
:10004000DF010008DF010008DF010008DF01000810
:10005000DF010008DF010008DF010008DF01000800
:10006000DF010008DF010008DF010008DF010008F0
:10007000DF010008DF010008DF010008DF010008E0
:10008000DF010008DF010008DF010008DF010008D0
:10009000DF010008DF010008DF010008DF010008C0
:1000A000DF010008DF010008DF010008DF010008B0
:1000B000DF010008DF010008DF010008DF010008A0
:1000C000DF010008DF010008DF010008DF01000890
:1000D000DF010008ED030008DF010008DF01000870
:1000E000DF010008DF010008DF010008DF01000870
:1000F000DF010008DF010008DF010008DF01000860
:10010000DF010008DF010008DF010008DF0100084F
:10011000DF010008DF010008DF010008DF0100083F
:10012000DF010008DF010008DF010008DF0100082F
:10013000DF010008DF010008DF010008DF0100081F
:10014000DF010008DF010008DF010008DF0100080F
:10015000DF010008DF010008DF010008DF010008FF
:10016000DF010008DF010008DF010008DF010008EF
:10017000DF010008DF010008DF01000800000000C7
:10018000DF010008DF010008DF010008DF010008CF
:10019000DF010008DF010008DF01000800000000A7
:1001A000DF010008DF010008DF010008DFF810D0E0
:1001B00000F05EF800480047E10E0008AFF3008051
:1001C000100500200648804706480047FEE7FEE786
:1001D000FEE7FEE7FEE7FEE7FEE7FEE7FEE7FEE7F7
:1001E00019030008AD010008D2B201E000F8012BAC
:1001F000491EFBD270470022F6E710B513460A46A7
:1002000004461946FFF7F0FF204610BD2DE9F05FC8
:100210000546002092469B46884606468146402475
:100220001BE0284641464746224600F042F8534626
:100230005A46C01A914110D311461846224600F082
:1002400029F82D1A67EB01084F46224601200021AC
:1002500000F020F817EB00094E41201EA4F1010424
:10026000DFDC484631462A464346BDE8F09F0000A1
:10027000064C074D06E0E06840F0010394E80700F3
:1002800098471034AC42F6D3FFF794FF641500088A
:1002900084150008202A04DB203A00FA02F100202D
:1002A00070479140C2F1200320FA03F319439040B4
:1002B0007047202A04DB203A21FA02F0002170471F
:1002C00021FA02F3D040C2F12002914008431946BE
:1002D000704700BFFEE7704700BFFEE700BFFEE7C4
:1002E0007047000010B5002807DA0A07140E054A07
:1002F00000F00F031B1FD45403E00A07130E024A39
:10030000135410BD18ED00E000E400E070477047A2
:1003100010B500F013FC10BD08B53048006840F47B
:1003200070002E4908602E48006840F001002C49FA
:10033000086000BF2A48006800F002000028F9D0D9
:1003400000BF27480830006840F080002449083189
:1003500008600020009002E00098401C0090009887
:100360005028F9D31E480830006840F090001C491E
:10037000083108600020009002E00098401C0090C6
:1003800000985028F9D300BF15480830006820F0C5
:1003900003001349083108601148006811490840FA
:1003A0000F4908600846006820F48020086000209B
:1003B0000B490831086000BF094808300068002078
:1003C0000028F9D108480649091D086000200449A1
:1003D0000C31086000F094FF08BD000088ED00E0DB
:1003E00000380240FFFFF6FE1030002410B5064929
:1003F000064801F073F8012805D100F08BF9024995
:10040000024801F05EF810BD040304000010014032
:1004100000BFFEE70FB4054B10B503A9044A0298CC
:1004200000F018F810BC5DF814FB0000BD0D0008CA
:100430000800002002E008C8121F08C1002AFAD1F3
:1004400070477047002001E001C1121F002AFBD154
:10045000704700002DE9FF4F8DB09B460F460446C4
:10046000002606E025280BD05A460F999047641CB9
:10047000761C20780028F5D111B03046BDE8F08F09
:100480000025A8460122984900E0054314F8013FE1
:10049000203B02FA03F00842F7D120782E2817D12A
:1004A00014F8010F45F004052A280ED06FF02F0232
:1004B0002078A0F1300109290AD808EB880102EB65
:1004C000410100EB0108641CF2E757F8048B641C3F
:1004D00020786C280DD004DC4C2812D06A2811D169
:1004E00004E074280DD07A280CD10AE045F40015F8
:1004F00007E0617845F48015814202D1641C05F55E
:100500008015641C2078692844D008DC0028B3D00A
:10051000582867D063280FD0642808D13AE07028A3
:1005200065D0732812D075285AD078285AD05A46E8
:100530000F999047761CD5E017F8040B8DF8000052
:1005400000208DF80100E946012003E057F8049BE4
:100550004FF0FF3069074FF0000501D40AE06D1C31
:1005600045450DDA8542FADB19F805100029F6D168
:1005700006E06D1C8542FCDB19F805100029F8D156
:100580002E4404E019F8010B5A460F9990476D1E4E
:10059000F8D2A7E00A200021CDE90801C5F30250F6
:1005A00002280CD001CFC117021E71F100020CDA33
:1005B0000023D0EB030063EB01012D2208E0FF1DB7
:1005C00027F00707F7E80201EEE72A0504D52B22FA
:1005D0008DF8282001223CE0EA073AD02022F7E7F4
:1005E0000A2000E010200021CDE9080107E01020DA
:1005F000002145F00405CDE908014FF00808C5F3D6
:100600000250022810D001CF00214FF0000A2A0723
:1006100020D52278702A0DD0DDE908C38CF0100CAB
:100620005CEA030C0CD015E0FF1D27F00707F7E884
:100630000201EAE740228DF828204FF0010A0CE081
:1006400050EA010306D030238DF828308DF8292098
:10065000022292462278582A04D024A20DF12009C1
:100660000B9209E026A2F9E7DDE90823FFF7CEFDAA
:100670000B9B9B5C09F8013D50EA0102F4D1ADEB04
:10068000090020300890680701D44FF0010808994C
:10069000884503DD0898A8EB000000E000208046B4
:1006A000002506E00AA85A46405D0F9990476D1C48
:1006B000761C5545F6DB04E030205A460F999047EA
:1006C000761CB8F10001A8F10108F5DC05E019F885
:1006D000010B5A460F999047761C0899481E0890BE
:1006E0000029F4DC641CC4E60928010030313233EF
:1006F000343536373839616263646566000000005E
:100700003031323334353637383941424344454647
:100710000000000010B5074800F092FE064907A04F
:10072000FFF778FE4FF480710348FFF764FD00F097
:1007300009F810BD001001400C00002072783A202A
:1007400025730A0000B589B04FF4406000F012FD37
:100750004FF4406000F00EFD4FF480630022022150
:100760003B4800F074FB4FF400730022022138482C
:1007700000F06DFB4FF4806303220021344800F049
:100780008DFB4FF4007303220021314800F086FBFB
:100790004FF4806207212E4800F026FB4FF40072D0
:1007A00007212B4800F020FB41F2041000F0E2FC8E
:1007B0004FF41651274800F0CFFD0021254800F0E6
:1007C000A9FE0021234800F0C5FE0021214800F0C9
:1007D000B1FE204800F047FE08211E4800F0B2FE9E
:1007E00004211C4800F09EFE40211A4800F031FE12
:1007F0004FF44171174800F057FE002201212520D7
:1008000000F0BAFB40F6164000F0B4FC022112489A
:1008100000F0C3F9684600F0BFFA0E48001D0090D2
:100820000E4802900020039004904FF480700790CF
:100830006A460221084800F003FA04220221064811
:1008400000F098F90221044800F084F909B000BDD5
:100850000000024000100140006402400C00002033
:1008600010B54021014800F0F0FA10BD001402401C
:1008700010B5002400F0CAF8902000F00BF9002019
:1008800000F008F9002000F005F9002000F002F95E
:1008900000F0E6F8040200F0E3F80443FFF7E0FF9D
:1008A000204610BD10B5044600F03EF900BF00F030
:1008B00099F80128FBD000F0A9F8202000F0EAF810
:1008C000C4F3074000F0E6F8C4F3072000F0E2F8B4
:1008D000E0B200F0DFF8FFF7C3FF00BF00F082F8DE
:1008E0000128FBD010BD000000B587B040F60540E0
:1008F00000F040FC40F6054000F03CFC40F60540AE
:1009000000F038FC40F6054000F034FC40230022A3
:100910000121324800F09BFA4023032200212F4896
:1009200000F0BCFA40212D4800F08FFA4FF480739C
:1009300000220221294800F08AFA4FF48073032232
:100940000021264800F0AAFA4FF4807205212348BE
:1009500000F04AFA802300220221204800F077FAB2
:100960008023032200211D4800F098FA80220521EF
:100970001A4800F039FA4FF4007300220221174898
:1009800000F065FA4FF4007303220021134800F0D1
:1009900085FA4FF400720521104800F025FA41F263
:1009A000141000F0E7FB684600F022FC4FF4827060
:1009B00000900020019002904FF4007003900320FB
:1009C00005900020069004906946054800F0F7FB6A
:1009D000034800F0E1FB07B000BD00000014024036
:1009E0000050014010B5002400F010F8052000F080
:1009F00051F800F035F8044604F00104FFF730FF29
:100A00000CB1012010BD0020FCE7000010B5402112
:100A1000014800F018FA10BD0014024070B50446F9
:100A20000D461646FFF7F2FF032000F033F8C4F33B
:100A3000074000F02FF8C4F3072000F02BF8E0B2D5
:100A400000F028F803E000F00BF805F8010B301E69
:100A5000A6F101018EB2F6D1FFF702FF70BD0000D2
:100A600010B5FF210A4800F0A0FB00BF0221084892
:100A700000F09DFB0028F9D000BF0121044800F0E0
:100A800096FB0028F9D0024800F08BFBC0B210BDE5
:100A90000050014010B5044621460A4800F085FB8D
:100AA00000BF0221074800F082FB0028F9D000BFF8
:100AB0000121044800F07BFB0028F9D0014800F038
:100AC00070FB10BD0050014070B504460D4616463F
:100AD0002046FFF7E7FE00F027F800BFFFF782FF90
:100AE0000128FBD0FFF792FF0220FFF7D3FFC4F3EA
:100AF0000740FFF7CFFFC4F30720FFF7CBFFE0B2BB
:100B0000FFF7C8FF03E015F8010BFFF7C3FF301E26
:100B1000A6F101018EB2F6D1FFF7A2FE00BFFFF7EA
:100B200061FF0128FBD070BD10B5FFF76FFF0620F5
:100B3000FFF7B0FFFFF794FE10BD00000448006807
:100B400020B103480068401E01490860704700005A
:100B50000000002010B501EB4102D30000F11002AB
:100B6000D25842F0010301EB4102D40000F110021F
:100B7000135110BD30B5134601EB4104E50000F1FF
:100B80001004625922F0606242EA436201EB4104C0
:100B9000E50000F11004625130BD10B501EB4102D7
:100BA000D30000F11002D25822F0010301EB410200
:100BB000D40000F110021351002301EB4102D400D4
:100BC00000F11002135101EB4102D40000F11402B4
:100BD000135101EB4102D40000F11802135101EB53
:100BE0004102D40000F11C02135101EB4102D40078
:100BF00000F120021351212301EB4102D40000F146
:100C00002402135104290CDA01EB41025300C1F311
:100C1000400203EB82033D229A4083681A438260BC
:100C20000DE00A1FD1B201EB41025300C1F34002B3
:100C300003EB82033D229A40C3681A43C26010BD91
:100C400070B501EB4104E50000F12404645924F07F
:100C5000040501EB4104E60000F12404A55101EB79
:100C60004104E60000F118041568A55101EB4104A8
:100C7000E60000F11C049568A55101EB4104E60073
:100C800000F11404D569A55101EB4104E50000F120
:100C9000100463593F4C2340146944EA8404156AE4
:100CA0002C4395692C43234301EB4104E50000F1FB
:100CB00010046351546874B901EB4104E50000F17C
:100CC0001004645944F4007501EB4104E60000F19E
:100CD0001004A5511FE05468012C0ED101EB410412
:100CE000E50000F11004645924F4007501EB41049F
:100CF000E60000F11004A5510DE001EB4104E50010
:100D000000F11004645944F4004501EB4104E6008D
:100D100000F11004A551D46874B901EB4104E50059
:100D200000F11004645944F4806501EB4104E600CD
:100D300000F11004A5510DE001EB4104E50000F1C4
:100D40001004645924F4806501EB4104E60000F1CD
:100D50001004A551546974B901EB4104E50000F198
:100D60001004645944F4807501EB4104E60000F17D
:100D70001004A5510DE001EB4104E50000F1100461
:100D8000645924F4807501EB4104E60000F110047D
:100D9000A55170BD3F87FCFF00210160012141602A
:100DA000002181600121C1600021016101214161B7
:100DB00000218161C16101627047000070B5044685
:100DC0000D46A1B2074800F040FB00BF07210548CF
:100DD00000F05BFB0028F9D00721024800F048FB37
:100DE000012070BD00100140F0B503461C6A5D6A29
:100DF00000200DE00126864016403EB187000F26F8
:100E0000BE40B443860001FA06F63443461CB0B235
:100E10000828EFD3082011E00126864016405EB175
:100E2000A0F10806B7000F26BE40B543A0F10806A2
:100E3000B60001FA06F63543461CB0B21028EBD3D3
:100E40001C625D62F0BD8162704781617047F0B5E0
:100E500004460D4616462168E268002019E0012785
:100E600087401F409FB14FEA400C032707FA0CF759
:100E7000B943470005FA07F739434FEA400C032707
:100E800007FA0CF7BA43470006FA07F73A43471C3C
:100E9000B8B21028E3D32160E260F0BDF0B50C4693
:100EA0001546012C03D146681E43466002E04668A1
:100EB0009E434660826800210DE001268E401E4060
:100EC0003EB14F000326BE40B2434E0005FA06F67F
:100ED00032434E1CB1B21029EFD38260F0BD000046
:100EE000A0B080216846FFF786F900F00DFA4FF4B4
:100EF000A06000F0A3F8FFF725FCFFF7F5FC0DA0BC
:100F0000FFF788FAFFF7B4FC044621460DA0FFF76F
:100F100081FA0D2210A10F20FFF7D6FD0D226946A0
:100F20000F20FFF77BFD69460FA0FFF773FA00BFA4
:100F3000FEE70000676433322072756E696E672EBB
:100F40002E2E0A00666C61736820696E666F3A2007
:100F5000307825780A000000706173732D74657312
:100F60007438393700000000666C6173682074655E
:100F700073743A2025730A002DE9F04103460D46AB
:100F8000164600240027A0462A48006800F4E060C6
:100F9000B0F5E06F03D100BF4FF0040830E0254802
:100FA000006800F4E060B0F5C06F03D101274FF096
:100FB000030825E01F48006800F4E060B0F5A06F6A
:100FC00002D10227B8461BE01A48006800F4E0602E
:100FD000B0F5806F03D103274FF0010810E01548EA
:100FE000006800F4E060B0F5407F03D104274FF0C3
:100FF000000805E04FF4A06000F020F80227B84692
:10100000C7F1040005FA00F4C8F104010F20C8403C
:101010003040044324010848C45403F01F01012058
:1010200088405911890001F1E021C1F80001BDE8B3
:10103000F08100000CED00E000E400E00249014313
:10104000024A1160704700000000FA050CED00E054
:101050002DE9F04F8CB0064600200A903EA090E8A3
:10106000004CC068CDE905BECDF810A007900FF286
:10107000EC0ADAE9000ACDE9020A0FF2E00ADAE93D
:10108000000ACDE9000A38480068C0F381000B90DF
:101090000B9820B1012804D0022828D103E033495D
:1010A00027E0334925E03048001F006800F03F0783
:1010B0002D48001F0068C0F3881C2B48001F0068E3
:1010C000C0F30140401C4FEA40092748001F006858
:1010D00000F48008B8F5800F01D1254B00E0234BC8
:1010E000B3FBF7F000FB0CF0B0FBF9F101E01F4996
:1010F00000BF00BF1C480068C0F3031404A8055DCE
:1011000021FA05F218480068C0F3822402A8055DA0
:1011100022FA05F0099014480068C0F342341DF823
:10112000045022FA05F0089036B1012E06D0022EA6
:1011300006D0032E0AD106E00A9108E00A9206E0E2
:1011400009980A9003E008980A9000E000BF00BFE9
:101150000A980CB0BDE8F08F00000000000000000D
:101160000102030406070809083802400024F400BD
:1011700040787D01074A02EB9011D1F8001800F089
:101180001F0301229A401143024B03EB9012C2F855
:101190000018704700300240016841F040010160D2
:1011A00070470146C86880B27047C1607047024608
:1011B0009068084008B1012070470020FCE7024613
:1011C0000020106800F441500B6818434B68184326
:1011D0008B681843CB6818430B6918434B69184355
:1011E0008B6918431060D36923F40063D36170479F
:1011F0000021016041608160C160416181610161E4
:1012000070470000002000213A4A126842F00102B3
:10121000384B1A6000BF401C364A126802F00201C7
:1012200011B9B0F5A06FF6D1324A126802F002028D
:101230000AB900BFFEE72F4A4032126842F08052DE
:101240002C4B40331A602C4A126842F440422A4B1D
:101250001A60284A08321268264B08331A601A4668
:10126000126842F400421A601A46126842F4A05210
:101270001A60224A1B1F1A601A1F126842F08072FD
:101280001B1F1A6000BF1B4A126802F00072002A7E
:10129000F9D0194A126842F48032174B1A6000BF25
:1012A000154A526802F48032002AF9D0124A1268B4
:1012B00042F40032104B1A6000BF0F4A526802F429
:1012C0000032002AF9D00B4A0832126822F00302D9
:1012D000084B08331A601A46126842F002021A607C
:1012E00000BF044A0832126802F00802002AF8D04F
:1012F0007047000000380240007000401078000A7B
:1013000010B5FFF77FFF10BD10B5124800684FF40D
:101310007A71B0FBF1F4601EB0F1807F01D301203F
:101320000FE0601E4FF0E02148610F214FF0FF30C9
:10133000FEF7D8FF00204FF0E02188610720086108
:10134000002008B100BFFEE70021481EFEF7CAFFDB
:1013500010BD0000040000202DE9F04704460D46B2
:101360000027B846B94600263349601A8C4235D06A
:101370000CDC32482044E8B1B0F5806F1FD0B0F5E6
:10138000006F21D0B0F5406F32D122E0B0F5806F10
:1013900029D0B0F5184F03D0B0F51C4F28D104E088
:1013A0000320FFF755FE074623E00320FFF750FE1A
:1013B00007461EE00220FFF74BFE074619E0022019
:1013C000FFF746FE074614E00220FFF741FE0746FE
:1013D0000FE00220FFF73CFE07460AE00220FFF77D
:1013E00037FE074605E00220FFF732FE074600E021
:1013F00000BF00BFE06800F4004070B1780000EB6F
:101400005500B0FBF5F64FF6F07006EA0008C6F39B
:10141000420948EA0900A0600CE007EB5500B0FB68
:10142000F5F64FF6F07006EA000806F00F0948EAF4
:101430000900A060BDE8F0870078004000BCFFBF55
:1014400001464868C0F308007047C1F308024260D3
:101450007047426922F040024261426901F0400354
:101460001A4342617047C16841F40051C16070473E
:1014700010B500EB9112126801F01F040123A34084
:101480009A4300EB91131A6010BD10B5024602EBAF
:101490009110006801F01F040123A340184008B117
:1014A000012010BD0020FCE710B500EB911212687E
:1014B00001F01F040123A3401A4300EB91131A60AB
:1014C00010BD10B500EB91521268C1F30444012322
:1014D000A3409A4300EB91531A6010BD70B50246C9
:1014E00000230024C1F38910105801F01F060125C4
:1014F000B54000EA050302EB91500068C1F30446D1
:101500000125B54000EA050414B10BB1012070BDFE
:101510000020FCE7C26822F4C062C260C2680A43CD
:10152000C26070470A460021C16821F004011143DE
:10153000C1607047026922F44052026102690A43A5
:10154000026170470A460021C16821F00801114379
:10155000C1607047C26822F48052C260C2680A4308
:10156000C260704784150008000000200C000000D5
:1015700034040008901500080C0000200405000049
:101580004404000800000000001C4E0E0000000093
:04000005080001AD41
:00000001FF
